{
  "_format": "hh-sol-artifact-1",
  "contractName": "VoteContract",
  "sourceName": "contracts/VoteContract.sol",
  "abi": [
    {
      "anonymous": false,
      "inputs": [
        {
          "indexed": true,
          "internalType": "uint256",
          "name": "electionId",
          "type": "uint256"
        },
        {
          "indexed": true,
          "internalType": "address",
          "name": "voter",
          "type": "address"
        },
        {
          "indexed": false,
          "internalType": "bytes32",
          "name": "voteHash",
          "type": "bytes32"
        },
        {
          "indexed": false,
          "internalType": "uint256",
          "name": "timestamp",
          "type": "uint256"
        }
      ],
      "name": "VoteRecorded",
      "type": "event"
    },
    {
      "inputs": [
        {
          "internalType": "uint256",
          "name": "electionId",
          "type": "uint256"
        },
        {
          "internalType": "address",
          "name": "voter",
          "type": "address"
        }
      ],
      "name": "checkIfVoted",
      "outputs": [
        {
          "internalType": "bool",
          "name": "",
          "type": "bool"
        }
      ],
      "stateMutability": "view",
      "type": "function"
    },
    {
      "inputs": [
        {
          "internalType": "uint256",
          "name": "",
          "type": "uint256"
        },
        {
          "internalType": "uint256",
          "name": "",
          "type": "uint256"
        }
      ],
      "name": "electionVotes",
      "outputs": [
        {
          "internalType": "bytes32",
          "name": "",
          "type": "bytes32"
        }
      ],
      "stateMutability": "view",
      "type": "function"
    },
    {
      "inputs": [
        {
          "internalType": "uint256",
          "name": "electionId",
          "type": "uint256"
        }
      ],
      "name": "getElectionVotes",
      "outputs": [
        {
          "internalType": "bytes32[]",
          "name": "",
          "type": "bytes32[]"
        }
      ],
      "stateMutability": "view",
      "type": "function"
    },
    {
      "inputs": [
        {
          "internalType": "uint256",
          "name": "electionId",
          "type": "uint256"
        },
        {
          "internalType": "address",
          "name": "voter",
          "type": "address"
        }
      ],
      "name": "getVote",
      "outputs": [
        {
          "internalType": "bytes32",
          "name": "voteHash",
          "type": "bytes32"
        },
        {
          "internalType": "uint256",
          "name": "timestamp",
          "type": "uint256"
        }
      ],
      "stateMutability": "view",
      "type": "function"
    },
    {
      "inputs": [
        {
          "internalType": "uint256",
          "name": "electionId",
          "type": "uint256"
        }
      ],
      "name": "getVoteCount",
      "outputs": [
        {
          "internalType": "uint256",
          "name": "",
          "type": "uint256"
        }
      ],
      "stateMutability": "view",
      "type": "function"
    },
    {
      "inputs": [
        {
          "internalType": "uint256",
          "name": "",
          "type": "uint256"
        },
        {
          "internalType": "address",
          "name": "",
          "type": "address"
        }
      ],
      "name": "hasVoted",
      "outputs": [
        {
          "internalType": "bool",
          "name": "",
          "type": "bool"
        }
      ],
      "stateMutability": "view",
      "type": "function"
    },
    {
      "inputs": [
        {
          "internalType": "uint256",
          "name": "electionId",
          "type": "uint256"
        },
        {
          "internalType": "bytes32",
          "name": "voteHash",
          "type": "bytes32"
        }
      ],
      "name": "recordVote",
      "outputs": [],
      "stateMutability": "nonpayable",
      "type": "function"
    },
    {
      "inputs": [
        {
          "internalType": "uint256",
          "name": "",
          "type": "uint256"
        },
        {
          "internalType": "address",
          "name": "",
          "type": "address"
        }
      ],
      "name": "votes",
      "outputs": [
        {
          "internalType": "bytes32",
          "name": "voteHash",
          "type": "bytes32"
        },
        {
          "internalType": "uint256",
          "name": "timestamp",
          "type": "uint256"
        },
        {
          "internalType": "address",
          "name": "voter",
          "type": "address"
        }
      ],
      "stateMutability": "view",
      "type": "function"
    }
  ],
  "bytecode": "0x608060405234801561001057600080fd5b50610ca3806100206000396000f3fe608060405234801561001057600080fd5b50600436106100885760003560e01c8063bc3f931f1161005b578063bc3f931f1461014d578063ce71136f1461017e578063d23254b41461019a578063d37b42d6146101cc57610088565b80633064f32e1461008d57806343859632146100bd578063527a7ae2146100ed578063b2c2f2e81461011d575b600080fd5b6100a760048036038101906100a291906107be565b6101fc565b6040516100b49190610817565b60405180910390f35b6100d760048036038101906100d29190610890565b61022d565b6040516100e491906108eb565b60405180910390f35b61010760048036038101906101029190610906565b61025c565b60405161011491906109f1565b60405180910390f35b61013760048036038101906101329190610906565b6102c7565b6040516101449190610a22565b60405180910390f35b61016760048036038101906101629190610890565b6102e7565b604051610175929190610a3d565b60405180910390f35b61019860048036038101906101939190610a92565b6103c8565b005b6101b460048036038101906101af9190610890565b6106c4565b6040516101c393929190610ae1565b60405180910390f35b6101e660048036038101906101e19190610890565b61071b565b6040516101f391906108eb565b60405180910390f35b6001602052816000526040600020818154811061021857600080fd5b90600052602060002001600091509150505481565b60026020528160005260406000206020528060005260406000206000915091509054906101000a900460ff1681565b6060600160008381526020019081526020016000208054806020026020016040519081016040528092919081815260200182805480156102bb57602002820191906000526020600020905b8154815260200190600101908083116102a7575b50505050509050919050565b600060016000838152602001908152602001600020805490509050919050565b600080600080600086815260200190815260200160002060008573ffffffffffffffffffffffffffffffffffffffff1673ffffffffffffffffffffffffffffffffffffffff16815260200190815260200160002060405180606001604052908160008201548152602001600182015481526020016002820160009054906101000a900473ffffffffffffffffffffffffffffffffffffffff1673ffffffffffffffffffffffffffffffffffffffff1673ffffffffffffffffffffffffffffffffffffffff168152505090508060000151816020015192509250509250929050565b6000821161040b576040517f08c379a000000000000000000000000000000000000000000000000000000000815260040161040290610b75565b60405180910390fd5b6000801b8103610450576040517f08c379a000000000000000000000000000000000000000000000000000000000815260040161044790610be1565b60405180910390fd5b6002600083815260200190815260200160002060003373ffffffffffffffffffffffffffffffffffffffff1673ffffffffffffffffffffffffffffffffffffffff16815260200190815260200160002060009054906101000a900460ff16156104ee576040517f08c379a00000000000000000000000000000000000000000000000000000000081526004016104e590610c4d565b60405180910390fd5b60405180606001604052808281526020014281526020013373ffffffffffffffffffffffffffffffffffffffff1681525060008084815260200190815260200160002060003373ffffffffffffffffffffffffffffffffffffffff1673ffffffffffffffffffffffffffffffffffffffff168152602001908152602001600020600082015181600001556020820151816001015560408201518160020160006101000a81548173ffffffffffffffffffffffffffffffffffffffff021916908373ffffffffffffffffffffffffffffffffffffffff16021790555090505060016002600084815260200190815260200160002060003373ffffffffffffffffffffffffffffffffffffffff1673ffffffffffffffffffffffffffffffffffffffff16815260200190815260200160002060006101000a81548160ff021916908315150217905550600160008381526020019081526020016000208190806001815401808255809150506001900390600052602060002001600090919091909150553373ffffffffffffffffffffffffffffffffffffffff16827f9a4a7fe8db5de36093b2f4e71424ecfae68696e359e6603fe7aa815a84bcaf2883426040516106b8929190610a3d565b60405180910390a35050565b6000602052816000526040600020602052806000526040600020600091509150508060000154908060010154908060020160009054906101000a900473ffffffffffffffffffffffffffffffffffffffff16905083565b60006002600084815260200190815260200160002060008373ffffffffffffffffffffffffffffffffffffffff1673ffffffffffffffffffffffffffffffffffffffff16815260200190815260200160002060009054906101000a900460ff16905092915050565b600080fd5b6000819050919050565b61079b81610788565b81146107a657600080fd5b50565b6000813590506107b881610792565b92915050565b600080604083850312156107d5576107d4610783565b5b60006107e3858286016107a9565b92505060206107f4858286016107a9565b9150509250929050565b6000819050919050565b610811816107fe565b82525050565b600060208201905061082c6000830184610808565b92915050565b600073ffffffffffffffffffffffffffffffffffffffff82169050919050565b600061085d82610832565b9050919050565b61086d81610852565b811461087857600080fd5b50565b60008135905061088a81610864565b92915050565b600080604083850312156108a7576108a6610783565b5b60006108b5858286016107a9565b92505060206108c68582860161087b565b9150509250929050565b60008115159050919050565b6108e5816108d0565b82525050565b600060208201905061090060008301846108dc565b92915050565b60006020828403121561091c5761091b610783565b5b600061092a848285016107a9565b91505092915050565b600081519050919050565b600082825260208201905092915050565b6000819050602082019050919050565b610968816107fe565b82525050565b600061097a838361095f565b60208301905092915050565b6000602082019050919050565b600061099e82610933565b6109a8818561093e565b93506109b38361094f565b8060005b838110156109e45781516109cb888261096e565b97506109d683610986565b9250506001810190506109b7565b5085935050505092915050565b60006020820190508181036000830152610a0b8184610993565b905092915050565b610a1c81610788565b82525050565b6000602082019050610a376000830184610a13565b92915050565b6000604082019050610a526000830185610808565b610a5f6020830184610a13565b9392505050565b610a6f816107fe565b8114610a7a57600080fd5b50565b600081359050610a8c81610a66565b92915050565b60008060408385031215610aa957610aa8610783565b5b6000610ab7858286016107a9565b9250506020610ac885828601610a7d565b9150509250929050565b610adb81610852565b82525050565b6000606082019050610af66000830186610808565b610b036020830185610a13565b610b106040830184610ad2565b949350505050565b600082825260208201905092915050565b7f496e76616c696420656c656374696f6e20494400000000000000000000000000600082015250565b6000610b5f601383610b18565b9150610b6a82610b29565b602082019050919050565b60006020820190508181036000830152610b8e81610b52565b9050919050565b7f496e76616c696420766f74652068617368000000000000000000000000000000600082015250565b6000610bcb601183610b18565b9150610bd682610b95565b602082019050919050565b60006020820190508181036000830152610bfa81610bbe565b9050919050565b7f416c726561647920766f74656420696e207468697320656c656374696f6e0000600082015250565b6000610c37601e83610b18565b9150610c4282610c01565b602082019050919050565b60006020820190508181036000830152610c6681610c2a565b905091905056fea26469706673582212203d173719c073ff0c3bc22e1a6a3b8ac02c2d8272a43b44390a801e9a9ad40ebd64736f6c63430008130033",
  "linkReferences": {},
  "deployedLinkReferences": {}
}